{"abi":[{"type":"constructor","inputs":[{"name":"initialOwner","type":"address","internalType":"address"}],"stateMutability":"nonpayable"},{"type":"function","name":"DOMAIN_SEPARATOR","inputs":[],"outputs":[{"name":"","type":"bytes32","internalType":"bytes32"}],"stateMutability":"view"},{"type":"function","name":"allowance","inputs":[{"name":"owner","type":"address","internalType":"address"},{"name":"spender","type":"address","internalType":"address"}],"outputs":[{"name":"","type":"uint256","internalType":"uint256"}],"stateMutability":"view"},{"type":"function","name":"approve","inputs":[{"name":"spender","type":"address","internalType":"address"},{"name":"value","type":"uint256","internalType":"uint256"}],"outputs":[{"name":"","type":"bool","internalType":"bool"}],"stateMutability":"nonpayable"},{"type":"function","name":"balanceOf","inputs":[{"name":"account","type":"address","internalType":"address"}],"outputs":[{"name":"","type":"uint256","internalType":"uint256"}],"stateMutability":"view"},{"type":"function","name":"balances","inputs":[{"name":"","type":"address","internalType":"address"}],"outputs":[{"name":"","type":"uint256","internalType":"uint256"}],"stateMutability":"view"},{"type":"function","name":"burn","inputs":[{"name":"value","type":"uint256","internalType":"uint256"}],"outputs":[],"stateMutability":"nonpayable"},{"type":"function","name":"burn","inputs":[{"name":"from","type":"address","internalType":"address"},{"name":"amount","type":"uint256","internalType":"uint256"}],"outputs":[],"stateMutability":"nonpayable"},{"type":"function","name":"burnFrom","inputs":[{"name":"account","type":"address","internalType":"address"},{"name":"value","type":"uint256","internalType":"uint256"}],"outputs":[],"stateMutability":"nonpayable"},{"type":"function","name":"buyToken","inputs":[{"name":"to","type":"address","internalType":"address"},{"name":"amount","type":"uint256","internalType":"uint256"}],"outputs":[],"stateMutability":"payable"},{"type":"function","name":"decimals","inputs":[],"outputs":[{"name":"","type":"uint8","internalType":"uint8"}],"stateMutability":"view"},{"type":"function","name":"eip712Domain","inputs":[],"outputs":[{"name":"fields","type":"bytes1","internalType":"bytes1"},{"name":"name","type":"string","internalType":"string"},{"name":"version","type":"string","internalType":"string"},{"name":"chainId","type":"uint256","internalType":"uint256"},{"name":"verifyingContract","type":"address","internalType":"address"},{"name":"salt","type":"bytes32","internalType":"bytes32"},{"name":"extensions","type":"uint256[]","internalType":"uint256[]"}],"stateMutability":"view"},{"type":"function","name":"mint","inputs":[{"name":"to","type":"address","internalType":"address"},{"name":"amount","type":"uint256","internalType":"uint256"}],"outputs":[],"stateMutability":"nonpayable"},{"type":"function","name":"name","inputs":[],"outputs":[{"name":"","type":"string","internalType":"string"}],"stateMutability":"view"},{"type":"function","name":"nonces","inputs":[{"name":"owner","type":"address","internalType":"address"}],"outputs":[{"name":"","type":"uint256","internalType":"uint256"}],"stateMutability":"view"},{"type":"function","name":"owner","inputs":[],"outputs":[{"name":"","type":"address","internalType":"address"}],"stateMutability":"view"},{"type":"function","name":"permit","inputs":[{"name":"owner","type":"address","internalType":"address"},{"name":"spender","type":"address","internalType":"address"},{"name":"value","type":"uint256","internalType":"uint256"},{"name":"deadline","type":"uint256","internalType":"uint256"},{"name":"v","type":"uint8","internalType":"uint8"},{"name":"r","type":"bytes32","internalType":"bytes32"},{"name":"s","type":"bytes32","internalType":"bytes32"}],"outputs":[],"stateMutability":"nonpayable"},{"type":"function","name":"renounceOwnership","inputs":[],"outputs":[],"stateMutability":"nonpayable"},{"type":"function","name":"symbol","inputs":[],"outputs":[{"name":"","type":"string","internalType":"string"}],"stateMutability":"view"},{"type":"function","name":"tokenBurned","inputs":[],"outputs":[{"name":"","type":"uint256","internalType":"uint256"}],"stateMutability":"view"},{"type":"function","name":"tokenMinted","inputs":[],"outputs":[{"name":"","type":"uint256","internalType":"uint256"}],"stateMutability":"view"},{"type":"function","name":"totalSupply","inputs":[],"outputs":[{"name":"","type":"uint256","internalType":"uint256"}],"stateMutability":"view"},{"type":"function","name":"transfer","inputs":[{"name":"to","type":"address","internalType":"address"},{"name":"value","type":"uint256","internalType":"uint256"}],"outputs":[{"name":"","type":"bool","internalType":"bool"}],"stateMutability":"nonpayable"},{"type":"function","name":"transferFrom","inputs":[{"name":"from","type":"address","internalType":"address"},{"name":"to","type":"address","internalType":"address"},{"name":"value","type":"uint256","internalType":"uint256"}],"outputs":[{"name":"","type":"bool","internalType":"bool"}],"stateMutability":"nonpayable"},{"type":"function","name":"transferOwnership","inputs":[{"name":"newOwner","type":"address","internalType":"address"}],"outputs":[],"stateMutability":"nonpayable"},{"type":"event","name":"Approval","inputs":[{"name":"owner","type":"address","indexed":true,"internalType":"address"},{"name":"spender","type":"address","indexed":true,"internalType":"address"},{"name":"value","type":"uint256","indexed":false,"internalType":"uint256"}],"anonymous":false},{"type":"event","name":"Burned","inputs":[{"name":"from","type":"address","indexed":true,"internalType":"address"},{"name":"amount","type":"uint256","indexed":false,"internalType":"uint256"}],"anonymous":false},{"type":"event","name":"BuyToken","inputs":[{"name":"from","type":"address","indexed":true,"internalType":"address"},{"name":"amount","type":"uint256","indexed":false,"internalType":"uint256"},{"name":"tokenMinted","type":"uint256","indexed":false,"internalType":"uint256"},{"name":"tokenBurned","type":"uint256","indexed":false,"internalType":"uint256"}],"anonymous":false},{"type":"event","name":"EIP712DomainChanged","inputs":[],"anonymous":false},{"type":"event","name":"Minted","inputs":[{"name":"to","type":"address","indexed":true,"internalType":"address"},{"name":"amount","type":"uint256","indexed":false,"internalType":"uint256"}],"anonymous":false},{"type":"event","name":"OwnershipTransferred","inputs":[{"name":"previousOwner","type":"address","indexed":true,"internalType":"address"},{"name":"newOwner","type":"address","indexed":true,"internalType":"address"}],"anonymous":false},{"type":"event","name":"Transfer","inputs":[{"name":"from","type":"address","indexed":true,"internalType":"address"},{"name":"to","type":"address","indexed":true,"internalType":"address"},{"name":"value","type":"uint256","indexed":false,"internalType":"uint256"}],"anonymous":false},{"type":"error","name":"ECDSAInvalidSignature","inputs":[]},{"type":"error","name":"ECDSAInvalidSignatureLength","inputs":[{"name":"length","type":"uint256","internalType":"uint256"}]},{"type":"error","name":"ECDSAInvalidSignatureS","inputs":[{"name":"s","type":"bytes32","internalType":"bytes32"}]},{"type":"error","name":"ERC20InsufficientAllowance","inputs":[{"name":"spender","type":"address","internalType":"address"},{"name":"allowance","type":"uint256","internalType":"uint256"},{"name":"needed","type":"uint256","internalType":"uint256"}]},{"type":"error","name":"ERC20InsufficientBalance","inputs":[{"name":"sender","type":"address","internalType":"address"},{"name":"balance","type":"uint256","internalType":"uint256"},{"name":"needed","type":"uint256","internalType":"uint256"}]},{"type":"error","name":"ERC20InvalidApprover","inputs":[{"name":"approver","type":"address","internalType":"address"}]},{"type":"error","name":"ERC20InvalidReceiver","inputs":[{"name":"receiver","type":"address","internalType":"address"}]},{"type":"error","name":"ERC20InvalidSender","inputs":[{"name":"sender","type":"address","internalType":"address"}]},{"type":"error","name":"ERC20InvalidSpender","inputs":[{"name":"spender","type":"address","internalType":"address"}]},{"type":"error","name":"ERC2612ExpiredSignature","inputs":[{"name":"deadline","type":"uint256","internalType":"uint256"}]},{"type":"error","name":"ERC2612InvalidSigner","inputs":[{"name":"signer","type":"address","internalType":"address"},{"name":"owner","type":"address","internalType":"address"}]},{"type":"error","name":"InvalidAccountNonce","inputs":[{"name":"account","type":"address","internalType":"address"},{"name":"currentNonce","type":"uint256","internalType":"uint256"}]},{"type":"error","name":"InvalidShortString","inputs":[]},{"type":"error","name":"OwnableInvalidOwner","inputs":[{"name":"owner","type":"address","internalType":"address"}]},{"type":"error","name":"OwnableUnauthorizedAccount","inputs":[{"name":"account","type":"address","internalType":"address"}]},{"type":"error","name":"StringTooLong","inputs":[{"name":"str","type":"string","internalType":"string"}]}],"bytecode":{"object":"0x6101606040523480156200001257600080fd5b5060405162001a3c38038062001a3c833981016040819052620000359162000290565b6040518060400160405280600381526020016208ecaf60eb1b81525080604051806040016040528060018152602001603160f81b815250836040518060400160405280600381526020016208ecaf60eb1b8152506040518060400160405280600381526020016208e8ab60eb1b8152508160039081620000b6919062000369565b506004620000c5828262000369565b5050506001600160a01b038116620000f857604051631e4fbdf760e01b8152600060048201526024015b60405180910390fd5b6200010381620001c2565b506200011182600662000214565b610120526200012281600762000214565b61014052815160208084019190912060e052815190820120610100524660a052620001b060e05161010051604080517f8b73c3c69bb8fe3d512ecc4cf759cc79239f7b179b0ffacaa9a75d522b39400f60208201529081019290925260608201524660808201523060a082015260009060c00160405160208183030381529060405280519060200120905090565b60805250503060c05250620004ab9050565b600580546001600160a01b038381166001600160a01b0319831681179093556040519116919082907f8be0079c531659141344cd1fd0a4f28419497f9722a3daafe3b4186f6b6457e090600090a35050565b600060208351101562000234576200022c836200024d565b905062000247565b8162000241848262000369565b5060ff90505b92915050565b600080829050601f815111156200027b578260405163305a27a960e01b8152600401620000ef919062000435565b8051620002888262000486565b179392505050565b600060208284031215620002a357600080fd5b81516001600160a01b0381168114620002bb57600080fd5b9392505050565b634e487b7160e01b600052604160045260246000fd5b600181811c90821680620002ed57607f821691505b6020821081036200030e57634e487b7160e01b600052602260045260246000fd5b50919050565b601f82111562000364576000816000526020600020601f850160051c810160208610156200033f5750805b601f850160051c820191505b8181101562000360578281556001016200034b565b5050505b505050565b81516001600160401b03811115620003855762000385620002c2565b6200039d81620003968454620002d8565b8462000314565b602080601f831160018114620003d55760008415620003bc5750858301515b600019600386901b1c1916600185901b17855562000360565b600085815260208120601f198616915b828110156200040657888601518255948401946001909101908401620003e5565b5085821015620004255787850151600019600388901b60f8161c191681555b5050505050600190811b01905550565b60006020808352835180602085015260005b81811015620004655785810183015185820160400152820162000447565b506000604082860101526040601f19601f8301168501019250505092915050565b805160208083015191908110156200030e5760001960209190910360031b1b16919050565b60805160a05160c05160e051610100516101205161014051611536620005066000396000610d0501526000610cd801526000610b9501526000610b6d01526000610ac801526000610af201526000610b1c01526115366000f3fe60806040526004361061014b5760003560e01c806379cc6790116100b65780639dc29fac1161006f5780639dc29fac146103a3578063a1ad7cef146103c3578063a9059cbb146103d9578063d505accf146103f9578063dd62ed3e14610419578063f2fde38b1461045f57600080fd5b806379cc6790146102e85780637ecebe001461030857806384b0196e146103285780638da5cb5b1461035057806395d89b4114610378578063963563551461038d57600080fd5b80633644e515116101085780633644e5151461023357806340c10f191461024857806342966c681461026a57806368f8fc101461028a57806370a082311461029d578063715018a6146102d357600080fd5b806306fdde0314610150578063095ea7b31461017b57806318160ddd146101ab57806323b872dd146101ca57806327e235e3146101ea578063313ce56714610217575b600080fd5b34801561015c57600080fd5b5061016561047f565b6040516101729190611265565b60405180910390f35b34801561018757600080fd5b5061019b61019636600461129b565b610511565b6040519015158152602001610172565b3480156101b757600080fd5b506002545b604051908152602001610172565b3480156101d657600080fd5b5061019b6101e53660046112c5565b61052b565b3480156101f657600080fd5b506101bc610205366004611301565b600b6020526000908152604090205481565b34801561022357600080fd5b5060405160128152602001610172565b34801561023f57600080fd5b506101bc61054f565b34801561025457600080fd5b5061026861026336600461129b565b61055e565b005b34801561027657600080fd5b5061026861028536600461131c565b6105cf565b61026861029836600461129b565b6105dc565b3480156102a957600080fd5b506101bc6102b8366004611301565b6001600160a01b031660009081526020819052604090205490565b3480156102df57600080fd5b506102686106b7565b3480156102f457600080fd5b5061026861030336600461129b565b6106cb565b34801561031457600080fd5b506101bc610323366004611301565b6106e0565b34801561033457600080fd5b5061033d6106fe565b6040516101729796959493929190611335565b34801561035c57600080fd5b506005546040516001600160a01b039091168152602001610172565b34801561038457600080fd5b50610165610744565b34801561039957600080fd5b506101bc60095481565b3480156103af57600080fd5b506102686103be36600461129b565b610753565b3480156103cf57600080fd5b506101bc600a5481565b3480156103e557600080fd5b5061019b6103f436600461129b565b610849565b34801561040557600080fd5b506102686104143660046113ce565b610857565b34801561042557600080fd5b506101bc610434366004611441565b6001600160a01b03918216600090815260016020908152604080832093909416825291909152205490565b34801561046b57600080fd5b5061026861047a366004611301565b610991565b60606003805461048e90611474565b80601f01602080910402602001604051908101604052809291908181526020018280546104ba90611474565b80156105075780601f106104dc57610100808354040283529160200191610507565b820191906000526020600020905b8154815290600101906020018083116104ea57829003601f168201915b5050505050905090565b60003361051f8185856109cc565b60019150505b92915050565b6000336105398582856109de565b610544858585610a5c565b506001949350505050565b6000610559610abb565b905090565b610566610be6565b816001600160a01b03167f30385c845b448a36257a6a1716e6ad2e1bc2cbe333cde1e69fe849ad6511adfe826040516105a191815260200190565b60405180910390a280600960008282546105bb91906114c4565b909155506105cb90508282610c13565b5050565b6105d93382610c49565b50565b600954600a546040805184815260208101939093528201526001600160a01b038316907f047d414ddce29eba94711e9709b1446c3bb9339c2472cf6ff20610f80b1869129060600160405180910390a280600a5460095461063d91906114d7565b10156106865760405162461bcd60e51b81526020600482015260136024820152722737ba1032b737bab3b41023b2bc1021b7b4b760691b60448201526064015b60405180910390fd5b6001600160a01b0382166000908152600b6020526040812080548392906106ae9084906114c4565b90915550505050565b6106bf610be6565b6106c96000610c7f565b565b6106d68233836109de565b6105cb8282610c49565b6001600160a01b038116600090815260086020526040812054610525565b600060608060008060006060610712610cd1565b61071a610cfe565b60408051600080825260208201909252600f60f81b9b939a50919850469750309650945092509050565b60606004805461048e90611474565b816001600160a01b03167f696de425f79f4a40bc6d2122ca50507f0efbeabbff86a84871b7196ab8ea8df78260405161078e91815260200190565b60405180910390a26001600160a01b0382166000908152600b602052604090205481111561080a5760405162461bcd60e51b815260206004820152602360248201527f4e6f7420656e6f7567682047657820436f696e20696e20796f75722062616c616044820152626e636560e81b606482015260840161067d565b80600a600082825461081c91906114c4565b90915550506001600160a01b0382166000908152600b6020526040812080548392906106ae9084906114d7565b60003361051f818585610a5c565b8342111561087b5760405163313c898160e11b81526004810185905260240161067d565b60007f6e71edae12b1b97f4d1f60370fef10105fa2faae0126114a169c64845d6126c98888886108c88c6001600160a01b0316600090815260086020526040902080546001810190915590565b6040805160208101969096526001600160a01b0394851690860152929091166060840152608083015260a082015260c0810186905260e001604051602081830303815290604052805190602001209050600061092382610d2b565b9050600061093382878787610d58565b9050896001600160a01b0316816001600160a01b03161461097a576040516325c0072360e11b81526001600160a01b0380831660048301528b16602482015260440161067d565b6109858a8a8a6109cc565b50505050505050505050565b610999610be6565b6001600160a01b0381166109c357604051631e4fbdf760e01b81526000600482015260240161067d565b6105d981610c7f565b6109d98383836001610d86565b505050565b6001600160a01b038381166000908152600160209081526040808320938616835292905220546000198114610a565781811015610a4757604051637dc7a0d960e11b81526001600160a01b0384166004820152602481018290526044810183905260640161067d565b610a5684848484036000610d86565b50505050565b6001600160a01b038316610a8657604051634b637e8f60e11b81526000600482015260240161067d565b6001600160a01b038216610ab05760405163ec442f0560e01b81526000600482015260240161067d565b6109d9838383610e5b565b6000306001600160a01b037f000000000000000000000000000000000000000000000000000000000000000016148015610b1457507f000000000000000000000000000000000000000000000000000000000000000046145b15610b3e57507f000000000000000000000000000000000000000000000000000000000000000090565b610559604080517f8b73c3c69bb8fe3d512ecc4cf759cc79239f7b179b0ffacaa9a75d522b39400f60208201527f0000000000000000000000000000000000000000000000000000000000000000918101919091527f000000000000000000000000000000000000000000000000000000000000000060608201524660808201523060a082015260009060c00160405160208183030381529060405280519060200120905090565b6005546001600160a01b031633146106c95760405163118cdaa760e01b815233600482015260240161067d565b6001600160a01b038216610c3d5760405163ec442f0560e01b81526000600482015260240161067d565b6105cb60008383610e5b565b6001600160a01b038216610c7357604051634b637e8f60e11b81526000600482015260240161067d565b6105cb82600083610e5b565b600580546001600160a01b038381166001600160a01b0319831681179093556040519116919082907f8be0079c531659141344cd1fd0a4f28419497f9722a3daafe3b4186f6b6457e090600090a35050565b60606105597f00000000000000000000000000000000000000000000000000000000000000006006610f85565b60606105597f00000000000000000000000000000000000000000000000000000000000000006007610f85565b6000610525610d38610abb565b8360405161190160f01b8152600281019290925260228201526042902090565b600080600080610d6a88888888611030565b925092509250610d7a82826110ff565b50909695505050505050565b6001600160a01b038416610db05760405163e602df0560e01b81526000600482015260240161067d565b6001600160a01b038316610dda57604051634a1406b160e11b81526000600482015260240161067d565b6001600160a01b0380851660009081526001602090815260408083209387168352929052208290558015610a5657826001600160a01b0316846001600160a01b03167f8c5be1e5ebec7d5bd14f71427d1e84f3dd0314c0f7b2291e5b200ac8c7c3b92584604051610e4d91815260200190565b60405180910390a350505050565b6001600160a01b038316610e86578060026000828254610e7b91906114c4565b90915550610ef89050565b6001600160a01b03831660009081526020819052604090205481811015610ed95760405163391434e360e21b81526001600160a01b0385166004820152602481018290526044810183905260640161067d565b6001600160a01b03841660009081526020819052604090209082900390555b6001600160a01b038216610f1457600280548290039055610f33565b6001600160a01b03821660009081526020819052604090208054820190555b816001600160a01b0316836001600160a01b03167fddf252ad1be2c89b69c2b068fc378daa952ba7f163c4a11628f55a4df523b3ef83604051610f7891815260200190565b60405180910390a3505050565b606060ff8314610f9f57610f98836111b8565b9050610525565b818054610fab90611474565b80601f0160208091040260200160405190810160405280929190818152602001828054610fd790611474565b80156110245780601f10610ff957610100808354040283529160200191611024565b820191906000526020600020905b81548152906001019060200180831161100757829003601f168201915b50505050509050610525565b600080807f7fffffffffffffffffffffffffffffff5d576e7357a4501ddfe92f46681b20a084111561106b57506000915060039050826110f5565b604080516000808252602082018084528a905260ff891692820192909252606081018790526080810186905260019060a0016020604051602081039080840390855afa1580156110bf573d6000803e3d6000fd5b5050604051601f1901519150506001600160a01b0381166110eb575060009250600191508290506110f5565b9250600091508190505b9450945094915050565b6000826003811115611113576111136114ea565b0361111c575050565b6001826003811115611130576111306114ea565b0361114e5760405163f645eedf60e01b815260040160405180910390fd5b6002826003811115611162576111626114ea565b036111835760405163fce698f760e01b81526004810182905260240161067d565b6003826003811115611197576111976114ea565b036105cb576040516335e2f38360e21b81526004810182905260240161067d565b606060006111c5836111f7565b604080516020808252818301909252919250600091906020820181803683375050509182525060208101929092525090565b600060ff8216601f81111561052557604051632cd44ac360e21b815260040160405180910390fd5b6000815180845260005b8181101561124557602081850181015186830182015201611229565b506000602082860101526020601f19601f83011685010191505092915050565b602081526000611278602083018461121f565b9392505050565b80356001600160a01b038116811461129657600080fd5b919050565b600080604083850312156112ae57600080fd5b6112b78361127f565b946020939093013593505050565b6000806000606084860312156112da57600080fd5b6112e38461127f565b92506112f16020850161127f565b9150604084013590509250925092565b60006020828403121561131357600080fd5b6112788261127f565b60006020828403121561132e57600080fd5b5035919050565b60ff60f81b881681526000602060e0602084015261135660e084018a61121f565b8381036040850152611368818a61121f565b606085018990526001600160a01b038816608086015260a0850187905284810360c08601528551808252602080880193509091019060005b818110156113bc578351835292840192918401916001016113a0565b50909c9b505050505050505050505050565b600080600080600080600060e0888a0312156113e957600080fd5b6113f28861127f565b96506114006020890161127f565b95506040880135945060608801359350608088013560ff8116811461142457600080fd5b9699959850939692959460a0840135945060c09093013592915050565b6000806040838503121561145457600080fd5b61145d8361127f565b915061146b6020840161127f565b90509250929050565b600181811c9082168061148857607f821691505b6020821081036114a857634e487b7160e01b600052602260045260246000fd5b50919050565b634e487b7160e01b600052601160045260246000fd5b80820180821115610525576105256114ae565b81810381811115610525576105256114ae565b634e487b7160e01b600052602160045260246000fdfea26469706673582212202ae7d9b0990f3468da7f8f5bd471dde721c0d8704f8ac8df9dbd3525a3a65a8d64736f6c63430008170033","linkReferences":{}},"methodIdentifiers":{"DOMAIN_SEPARATOR()":"3644e515","allowance(address,address)":"dd62ed3e","approve(address,uint256)":"095ea7b3","balanceOf(address)":"70a08231","balances(address)":"27e235e3","burn(address,uint256)":"9dc29fac","burn(uint256)":"42966c68","burnFrom(address,uint256)":"79cc6790","buyToken(address,uint256)":"68f8fc10","decimals()":"313ce567","eip712Domain()":"84b0196e","mint(address,uint256)":"40c10f19","name()":"06fdde03","nonces(address)":"7ecebe00","owner()":"8da5cb5b","permit(address,address,uint256,uint256,uint8,bytes32,bytes32)":"d505accf","renounceOwnership()":"715018a6","symbol()":"95d89b41","tokenBurned()":"a1ad7cef","tokenMinted()":"96356355","totalSupply()":"18160ddd","transfer(address,uint256)":"a9059cbb","transferFrom(address,address,uint256)":"23b872dd","transferOwnership(address)":"f2fde38b"},"id":41}